:020000040800F2
:1010000000500020B1FC0008ADFC0008ABFC00085B
:10101000ABFC0008ABFC0008ABFC000800000000C3
:10102000000000000000000000000000ADFC00080F
:10103000ADFC000800000000ADFC0008ADFC00089D
:10104000ABFC0008ABFC0008ABFC00082129000841
:10105000ABFC0008ABFC0008ABFC0008ABFC0008D4
:10106000ABFC0008ABFC0008ABFC0008ABFC0008C4
:10107000ABFC0008ABFC0008ABFC0008ABFC0008B4
:10108000C1560008FD560008ABFC00089D82000810
:101090007D8200088D820008ABFC0008ABFC0008D4
:1010A000ABFC0008ABFC0008ABFC0008ABFC000884
:1010B000ABFC0008ABFC0008D1280008ABFC000822
:1010C000ABFC0008ABFC0008ABFC0008ABFC000864
:1010D000ABFC0008ABFC0008ABFC0008ABFC000854
:1010E000DD280008ABFC0008ABFC0008ABFC0008E6
:1010F000ABFC0008ABFC0008ABFC0008ABFC000834
:10110000ABFC0008ABFC0008ABFC0008ABFC000823
:10111000ABFC0008ABFC0008ABFC0008ABFC000813
:10112000ABFC0008ABFC0008ABFC0008ABFC000803
:10113000ABFC0008ABFC0008ABFC0008C98200084F
:10114000A9820008B9820008ABFC0008ABFC0008CB
:1011500010B404466468084611461A46234610BC7B
:101160001847836818477047704770477047704743
:101170000020704741607047704770477047704764
:10118000704770477047002070470020704700008C
:101190000048704700004842002070474160704797
:1011A000704770477047704770470020704770471E
:1011B00041607047704770477047704770474160A3
:1011C00070477047704770477047704770470020FE
:1011D0007047704741607047002070477047704704
:1011E00070477047704741607047704700207047F4
:1011F000704741607047704770470020704700207B
:1012000070470020704700207047002070477047EB
:10121000704770477047000000487047003C1C460C
:10122000416070477047704708467047104B10B5D3
:10123000186803681B6898470E4B186803681B689A
:1012400098470D4B186803681B6898470B4B186844
:1012500003681B6898470A4B186803681B6898471F
:10126000BDE81040074B186803689B68184700BF2B
:101270001C00002018000020100000200C0000209E
:10128000080000200000002010B5174C20680368FB
:10129000DB699847052002F0EDFA062818D8DFE848
:1012A00000F0040A0C0E1012200000220F4B1A70DE
:1012B0000F4B23600CE00F4BFBE70F4BF9E70F4B95
:1012C000F7E70F4BF5E701220E4B23600E4B1A7028
:1012D0000E4C206805F05EFF6068BDE8104005F028
:1012E00059BF0B4BE5E700BF10000020CA2A0020C1
:1012F000C4290020BC290020B4290020E4290020B2
:10130000DC2900209C2900209E2A0020BC2A0020E5
:10131000D429002010B5114C20680368DB69984778
:10132000042002F0A7FA042806D8DFE800F0031032
:101330000E1214000A4B23600A4C206805F02AFFA5
:101340006068BDE8104005F025BF074BF3E7074B89
:10135000F1E7074BEFE7074BEDE700BF0C0000207C
:10136000CC290020BC2A0020942900208C290020B0
:10137000842900207C29002010B5114C20680368C6
:101380005B689847062002F075FA0138042813D8E4
:10139000DFE800F0140E0E0310000A4B23600A4C25
:1013A000206805F0F7FE6068BDE8104005F0F2BE69
:1013B000064BF3E7064BF1E7064BEFE7064BEDE78D
:1013C0000400002074270020BC2A002044270020AD
:1013D00008270020AC2700207C27002010B50D4CEA
:1013E000206803685B689847492002F043FA0128A7
:1013F0000ED0094B094A022818BF13462360084C37
:10140000206805F0C7FE6068BDE8104005F0C2BE68
:10141000044BF3E700000020E02600200027002016
:10142000BC2A0020F0260020022010B502F022FA8B
:101430000138032815D8DFE800F0020E10120A4B1D
:101440000A4C0B4A2068136005F0A4FE6068BDE8F2
:10145000104005F09FBE074BF2E7074BF0E7074B44
:10146000EEE7074BECE700BF18280020BC2A00205D
:101470000800002000280020F42700200C2800206D
:10148000D426002010B5012002F0F4F908280FD866
:10149000DFE800F0171C280E05091F222500134B5A
:1014A000134A1A6004E0114A124B136000229A7228
:1014B000114C206805F06EFE6068BDE8104005F034
:1014C00069BE0A4A0B4B13600122F0E7074B0B4A37
:1014D000E7E7064B0A4AE4E7044B0A4AE1E7034B15
:1014E000094ADEE7014B094ADBE700BF180000208C
:1014F000C02700204C2A0020BC2A00205C2A0020A3
:10150000402A0020282A0020782A0020B427002022
:10151000036810B59B6898470FF020FD0024014632
:10152000992002F0C7F92146942002F0D1F9214612
:10153000952002F0CDF92146972002F0C9F9214605
:10154000BDE81040982002F0C3B9000010B51B4C54
:10155000206803689B6A9847002002F08BF90828EE
:101560000FD8DFE800F005080A0E271C2117290014
:10157000134B236005E0134BFBE71348206004F096
:1015800033FE124C206805F005FE6068BDE810408F
:1015900005F000BE0C48206004F03EFEF1E70A486A
:1015A000206004F009FEECE7094B01222360094B9F
:1015B0001A70E6E7084BDCE7084BF6E71C00002052
:1015C0006C290020EC290020042A0020BC2A0020DD
:1015D0004C2900209E2A002074290020B4260020D7
:1015E00010B5194C206803681B699847502002F019
:1015F00041F905280FD8DFE800F003060817201E80
:10160000124B236007E0124BFBE7124B124819689C
:1016100020600BF05DFB114C206805F0BBFD60689D
:10162000BDE8104005F0B6BD0A4B0D4819682060B2
:101630000CF0CCFDEFE70B4BE3E701220A4B2360F4
:101640000A4B1A70E7E700BF14000020442900206D
:1016500038290020B0260020E4270020BC2A0020E2
:10166000C8270020D82700202C2900209E2A0020EF
:10167000B22002F015B900002DE9F74F082002F062
:10168000F9F8474C54F820100920019102F0F2F8C3
:1016900054F820600A2002F0EDF854F820500B2096
:1016A00002F0E8F854F820A00C2002F0E3F854F817
:1016B00020B00D2002F0DEF854F820900E2002F049
:1016C000D9F854F82070102002F0D4F854F8208093
:1016D000112002F0CFF854F8203001990093314BDB
:1016E00018680368DB6A98472F4B3146186803680F
:1016F000DB6B98472D4B5946186803681B6A98475F
:101700002B4B5146186803681B6A9847294B49467A
:10171000186803681B699847274B41461868036897
:101720005B699847254B3146186803689B69984761
:10173000394623480AF070F8224B0099186803686C
:101740005B699847072002F095F8012821D12846C7
:1017500003F006FB072002F08DF8022802D128468C
:1017600009F0DCF9072002F085F8032802D12846A9
:1017700009F0A6FB002240F20161606805F0EDFC73
:10178000002240F20161206803B0BDE8F04F05F08F
:10179000E4BC072002F06EF80428DBD1D7E700BFD5
:1017A000BC2A00201C00002018000020100000208F
:1017B0000C00002004000020000000200800002091
:1017C000DC2600201400002038B540F2DF73984278
:1017D00004460D4606D10A4601462F480AF024F871
:1017E000002038BD072002F045F801284ED12946D7
:1017F000204603F09BFB072002F03CF8022803D1AF
:101800002946204609F0D6F9072002F033F80328CC
:1018100003D12946204609F085FB204B2A4618684B
:1018200021460368DB6898471D4B2A461868214605
:1018300003681B6998471B4B2A46186821460368B2
:101840005B699847184B2A461868214603681B694C
:101850009847164B2A461868214603681B68984724
:10186000134B2A461868214603681B689847114B9A
:101870002A461868214603681B6998470E4B2A467A
:101880001868214603681B689847A9E7072001F0FC
:10189000F1FF0428AFD1AAE7DC2600201C000020BD
:1018A00018000020100000200C0000200400002080
:1018B00000000020080000201400002010B504469D
:1018C000818800680DF0E7FCA37900280CBF18465A
:1018D00083F0010010BD000008B50248FFF7EEFFDD
:1018E00008BD00BFD42B0020818800680DF0CEBC5D
:1018F000818800680DF0CCBC2DE9F74FA02001F0E5
:10190000B9FF0746842001F0B5FF0446A82001F086
:10191000B1FF81460DF0FAFE06F0DEF9774BDFF8F5
:10192000E081186803685B689847842001F0A2FF93
:101930000128054640F0C5803FB287EAE770A0EB7A
:10194000E77080B207F008F9002106460FF0C8FAE8
:1019500090B1002001F08EFF04280DD0232001F06B
:1019600089FF002840F0A8808742B8BF4FF0FF35BC
:101970004D4518BF06F1004648460FF0BFF8314606
:101980000FF010F90546D8F8000003685B68984727
:10199000D8F80000294603685A4F1B699847A720CA
:1019A00001F068FF0546322001F064FF8542386A85
:1019B00080F28B80FFF798FFD8F80000524E036842
:1019C0001B6A98470FF0CAFA05B22946A02001F019
:1019D00071FF082001F04EFF4C4B53F8200006F039
:1019E0002BFD012C01D0042C08D1306885EAE5716B
:1019F0000368A1EBE5719B6989B29847D6F800901E
:101A0000A920D9F80030D3F81CA001F03BFF014613
:101A10004846D047306803685B6898473C4B186875
:101A20000368DB6898473B4B186803685B68984716
:101A3000042C4DD1384B186803685B6898472846DA
:101A400006F006FF8246A32001F014FF814616200F
:101A500001F010FF81454FF03900D4BF4FF000096D
:101A60004FF0010901F00EFF0190292001F00AFF5B
:101A700051460FF053FAB0FA80F351465B090198D2
:101A80004FEAC30B0FF036FAB0FA80F040094BEA88
:101A9000800343EA89152946872001F00BFFDFF810
:101AA0007C90052C00F2AC80DFE814F03A00FC01D9
:101AB000C200C901E4012202002FA8BF4FF0FF3588
:101AC00056E707F0C9F8002562E7FFF711FF73E753
:101AD000052001F0CFFE032804D10F4B18680368DE
:101AE0005B689847012CAAD1DA2001F0C3FE411CA3
:101AF00001F00F01DA2001F0DDFEA0E70C0000206C
:101B00001C000020D831002018000020BC2A002032
:101B10000000002008000020100000201400002019
:101B20004FF00008AD4B414683F80080AC4BAD4808
:101B300083F800800CF0F9FDAB48FFF7D9FEB869D7
:101B4000FFF7D6FE4146A82001F0B4FE3068A74D4D
:101B500003685B69984785F80080DFF89482B8F8DD
:101B60000030002B57D1A348FFF7C2FEF869FFF7FA
:101B7000BFFEA148FFF7BCFEA32001F07BFE82461A
:101B8000162001F077FE824518DA306803689B6BF7
:101B9000984798B1306803685B6B984770B1974B72
:101BA0001B785BB1012419232C70A8F800300DF0CC
:101BB000ADFD934B1860894B1C700224914B1B7830
:101BC00053B11923A8F800300DF0A0FD8C4B02246E
:101BD00018600123824A137082480CF0AAFD58B1A4
:101BE0001923A8F800300DF091FD854B01211860F4
:101BF0007C480CF09AFD02242146842001F05AFE14
:101C0000F868FFF775FE0022D9F800001146036856
:101C1000DB6898478DE0013BA8F800307A4B1868E4
:101C200003689B689847B8F80030002BA4D19AE766
:101C3000DFF8D0B19BF80030002B40F09A80D8F844
:101C40000020724B9A4202D06748FFF74DFEF869B8
:101C5000DFF89C81FFF748FEB869FFF745FEB8F84A
:101C60000030002B40F092806348FFF73DFE684A49
:101C70001388002B40F09280002D00F09680584B86
:101C80001B7823B19BF80030002B08BF0024534B76
:101C90001B7833B1306803685B6B9847002808BF36
:101CA000002450480CF043FD28B14E480CF041FD93
:101CB000002808BF0024392001F0DCFD0EF01EFFD3
:101CC00051460FF02BF968B10DF020FD4C4B1B680D
:101CD0000533984206D94848FFF70AFE032006F06C
:101CE00001F803242146842001F0E4FD012C40F09A
:101CF0001781512001F0BEFD00284FF001047FF74D
:101D00007FAFF868FFF7F0FDD9F80000414903689C
:101D10009B689847D9F8005052202B68DE6801F084
:101D2000A9FD0746DF2001F0BBFDB9B202462846F7
:101D3000B047072001F09EFD022808D10A2001F0DB
:101D400099FD354B53F82010204608F045FF072039
:101D500001F090FD032840F0E6800A2001F08AFDA2
:101D60002D4B53F82010204603B0BDE8F04F09F08A
:101D70000BB9072001F07EFD00287FF468AFD8F88A
:101D80000020264B9A427FF462AF5DE7013B9BB295
:101D9000A8F80030002B7FF46AAF65E7013B9BB2E7
:101DA0001380002B7FF46BAF66E7104B1A784AB1B3
:101DB0001D70192329468920A8F80030012401F05C
:101DC00079FD5CE79BF8003053B31923294689203D
:101DD000A8F80030042401F06DFD50E7A02A00208F
:101DE0009F2A00209C2600204C2C0020A22A0020A4
:101DF000220000209C2C0020542C00209C2A002033
:101E000098260020CA2A00201000002074290020F3
:101E10002000002000004842BC2A0020EC290020BD
:101E200042480CF086FC00283FF429AF19232946CC
:101E30008920A8F80030052401F03CFD1FE70022AE
:101E40003B4B3C481A70FFF753FD3B4B1B7823B1CB
:101E50003A4B1B78002B08BF0024394B1B78002B12
:101E60003FF4CAAE306803685B6B9847002808BF30
:101E70000024C1E6334D2B8873B93348FFF734FD96
:101E800005F052FF2D4B1B78002B7FF4B5AE4FF4BD
:101E900096721C462A80AFE6013B9BB22B80002B3A
:101EA000EED1EAE7274D2B88E3B92748FFF71CFD61
:101EB0002648FFF719FD8420012101F0FBFC05F005
:101EC00033FF306803685B6B984718B94FF496731B
:101ED00004462B802146842001F0ECFC012C3FF4C9
:101EE00008AF8DE6013B9BB22B80002BE3D1DCE7F2
:101EF000144C238873B91448FFF7F6FC0B480CF018
:101F00001AFC0A480CF015FC10B94FF496732380A4
:101F10000524F6E6013B9BB22380002BEED1EAE7D5
:101F2000052CF5D06CE603B0BDE8F08F9C260020B0
:101F3000A22A0020542C00209F2A0020CA2A002018
:101F4000A02A0020220000209C2C00204C2C0020E5
:101F50002DE9F14F842001F08DFC05469F4BDFF801
:101F600080A218680368DB689847042D04D1DAF86A
:101F7000000003681B6998479A4C2378022B07D10D
:101F8000994B1B7823B1994B18680368DB68984715
:101F90002378012B02D9033B012B0AD8934E3068DA
:101FA0000368DB68984723781BB930680368DB68EF
:101FB000984706F029FF8E4B8E4F1968D020DFF826
:101FC000388201F077FCD120396801F073FCD2200F
:101FD000D8F8001001F06EFC884BD320196801F08E
:101FE00069FC0DF093FB864E0146DFF81892E42061
:101FF00001F060FCD420318801F05CFC99F80030DD
:10200000814C022B2ED1814B1B785BBB042D1AD146
:102010007F49DFF800B20B68002B44D15D202370AC
:1020200001F028FC4FF49673584379490860DBF8B7
:102030000030B3F5967F15D10023CBF800303388FC
:10204000013B33800EE0744A3B6812789A4228D1F3
:10205000724AD8F8003012789A4222D1338803B3FA
:102060000123237099F800303BBB684B1B780BB9F8
:10207000012323706F2001F0FDFB012821D1712085
:1020800001F0F8FB664B8346586802F0C7FA064633
:102090000146DC2001F00EFCB34551DA002121702D
:1020A00057E00023DDE7DBF80020013B01320B6045
:1020B000CBF80020002BBAD1B0E7012BDAD10023F6
:1020C000D7E7702001F0D6FB0128D8D0DAF800005D
:1020D000544A036812789B692178984708B1012D0A
:1020E0003BD1414B1E78002E40F0B2803146852016
:1020F00001F0E0FB4C4B042D1E7036D0012D37D182
:102100000022424B6F201A7001F0B4FB02285FD10D
:10211000722001F0AFFB8146732001F0ABFB404B16
:102120000646986802F07AFA01460446DD2001F07E
:10213000C1FBB1457EDCA1457EDCA64218DA82E017
:1021400099F80030012B03D1304A127802B923707C
:102150000121C22001F0AEFBB8E70121324B8520FE
:10216000197001F0A7FB042D02D11F4B1E784EB150
:1021700029463A682D48D8F8003001B0BDE8F04F44
:102180000CF0F2BA8A2001F075FB81463E2001F086
:1021900071FB81450CDB902001F06CFB81464020F7
:1021A00001F068FB8145DFBF0122184B26701A70D1
:1021B0001F4B186803689B68984700210EF086FE45
:1021C0000028D5D0002301222370104B1A70CFE7CE
:1021D000702001F04FFB0228CAD199E718000020B7
:1021E00010000020B22A0020C92A00200C00002084
:1021F000982A0020942A0020902A00208C2A00206F
:10220000AC2A0020B12A0020B02A0020C82A0020D1
:10221000A82A0020A42A0020AF2A0020AE2A0020ED
:10222000C8310020A12A0020CA2A00209C260020B4
:1022300004000020A14504DA074B986AFFF758FB19
:1022400096E7A64294DD044B986AFFF74DFB8FE7B3
:10225000042D7FF453AF8BE7D83100202DE9F843EC
:10226000924B934D998818680DF018F80DF020F8EE
:10227000904B914C186801F0CAFA0EF03FFC8F4960
:102280000EF044FD0146DB2001F022FB05F058FD75
:102290000146862001F00EFB842001F0EBFA29684C
:1022A0000646206806F0DEF9072001F0E3FA08B1DF
:1022B00006F0EAFC2068824F03689B6A9847014653
:1022C000B02001F0F7FA20680368DB6A98470146FE
:1022D000AE2001F0FDFA06F00BFD386803689B683C
:1022E0009847206803689B689847764B186803688E
:1022F000DB689847744B18680368DB689847734B32
:10230000186803681B699847286803689B689847A2
:102310006F4B186803689B6998476E4B186805F007
:102320003FF96D4B6421186809F0BBFB6B4B1B78C0
:102330000BB10BF099FAA82001F09CFA684D002827
:10234000686A65DAFFF7D0FA012E286963D1FFF7D2
:10235000CBFA3868DFF88C8103689B69984701469F
:10236000A92001F0B5FA386803685B69984701460F
:10237000AA2001F0ADFA386803685B6A98470EF04E
:10238000BDFB0146BE2001F0A3FA38680368DB6993
:10239000984701468E2001F09BFA2068524C036852
:1023A0005B6B98470146BD2001F084FA4F4BAB2090
:1023B000196801F07FFA4E4B1B78012B03D0042BD8
:1023C00001D0237823B1D8F8000003689B689847B0
:1023D000D8F80000DFF81C91036899F800105B69D9
:1023E0009847D8B9444B1F78C7B9237833B13946D9
:1023F000852001F05FFA414B27701F70D8F800006C
:1024000099F8001003689B6998473D4B18700CE0E1
:10241000FFF76EFA98E7FFF76BFA9AE7012E1EBFF7
:102420000122364B1A7001232370DFF8D880364F13
:10243000D8F80400B84206D0FFF740FA0146DF2082
:1024400001F038FA69E06F2001F014FA03285FD137
:102450002E4BD86802F0E2F801460446DE2001F077
:1024600029FA542001F006FA022840F0A0805520F5
:1024700001F000FAA04280F2A980542001F0FAF99C
:10248000032811D1552001F0F5F98146562001F0BD
:10249000F1F96423A4EB09015943A0EB090091FB76
:1024A000F0F1532001F006FA0121C8E7942C002036
:1024B00008000020CC2A0020180000200000204145
:1024C0001C0000201000002004000020000000205C
:1024D00014000020B82A0020B42A00209E2A0020E0
:1024E000D83100200C000020C92A0020F42E002042
:1024F000B22A0020B02A00209D2A0020CA2A0020EB
:10250000A12A002028320020C42B0020C83100203E
:10251000702001F0AFF903289AD0D8F80800B8422B
:1025200008D0FFF7CBF94A4B187018B10421852069
:1025300001F0C0F90BF04EF90BF064F9D8F8140073
:10254000444CB84203D0FFF7B9F900285CD001230E
:102550002370042E01D0012E6CD1A92001F092F934
:102560000446D72001F08EF9014620460EF0D6FC35
:1025700000284ED0A92001F085F90446762001F00C
:1025800081F921460EF0ACFC002844D0E86AFFF740
:10259000ABF9286BFFF7A8F9012E53D1B82001F051
:1025A00069F901284ED1686BFFF79EF94DE0542080
:1025B00001F060F903283FF45AAF542001F05AF9B2
:1025C00030B9552001F056F9A04207DC002136E76A
:1025D000542001F04FF901289FD1F2E7542001F077
:1025E00049F901287FF460AF552001F043F9814695
:1025F000562001F03FF96423A4EB09045C43A0EBEF
:10260000090194FBF1F14CE720700D2005F06AFB05
:102610009FE7D720AFE7762001F034F90E490EF09E
:10262000B7F921460EF07AFC0028B2D0E86AFFF72D
:102630005FF9AEE7E86AFFF75BF9052EA9D0286BD2
:10264000FFF756F9686BFFF753F9BDE8F88300BF51
:102650009D2A00209C2A00200000A040FEE70000E8
:102660000C2838B510D80C2819D8DFE810F0D300A2
:10267000D600E8001800DC00D900E2001800EB00EA
:10268000EB00EB00EB00EB00502800F0CF8000F2F5
:10269000B5803C2800F0DE80492800F0CD80232062
:1026A00001F0E8F840B1002001F0E4F8082803D078
:1026B0000021232001F0FEF8162001F0DBF8684D20
:1026C000684C2860172001F0D5F82060182001F030
:1026D000D1F86860192001F0CDF860601A2001F08F
:1026E000D1F8614D614C28601B2001F0CBF82060CF
:1026F000332001F0C7F85E4B2168186028680EF09F
:10270000EFFB50B15B491A2029605B4D256001F059
:10271000DFF829461B2001F0DBF81C2001F0B2F89D
:10272000564B574C18602E2001F0ACF8554B1860F2
:102730002F2001F0A7F8544B1860312001F0A2F8C7
:10274000524B1860262001F095F8514B18601E205E
:1027500001F098F84F4B1860242001F093F84E4B8D
:102760001860302001F08EF84C4B18601D2001F0ED
:1027700089F84B4B1860052001F07CF8042001F02B
:1027800079F8484B18702378012B22D15A2001F098
:1027900071F8454B1860592001F06CF8434B1860F4
:1027A000582001F067F8424B1860572001F062F89A
:1027B000404B18605B2001F05DF83F4B18705C20C7
:1027C00001F058F83D4B18705D2001F053F83C4B78
:1027D0001880452001F04EF820705D2001F04AF885
:1027E0004FF496735843374B186008F013F908F00C
:1027F00063F9BDE8384034480BF0F6BF692805D8C6
:1028000066287FF64CAF00F039FE48E77938042897
:10281000F9D944E7FEF79AFE41E7FEF733FE3EE7BB
:10282000FEF732FD3BE7FEF775FD38E7FEF7D8FE11
:1028300035E7FEF7A1FD32E7FEF7D0FD2FE7FEF703
:10284000F3FD2CE7214C206804F0A4FC606804F040
:10285000A1FC24E704F084FA04F070FA1FE700BF3B
:10286000EC2E0020E42E0020E02E0020DC2E0020A4
:10287000A42E00200080BB440000C842D82E0020B7
:10288000B12A0020D02E0020C82E0020C42E002007
:10289000A82E0020C02E0020BC2E0020CC2E002010
:1028A000D42E0020B22A00208C2A0020902A00205A
:1028B000942A0020982A0020AF2A0020AE2A002067
:1028C000AC2A0020A82A00209C260020BC2A002038
:1028D000014B186800F064BFCC2A002000B589B015
:1028E00003A804F0BDFA28B1DDF815300193DDF836
:1028F0001930029304F02FFA4FF400400CF084FBDF
:102900000499A1F58473012B05D8044B01AA18681A
:1029100003681B69984709B000BD00BF0C00002088
:1029200008B500200CF02EFF104B1A6801323B2A2C
:102930001A600F4A05D911680131116019683C39D4
:10294000196013683B2B0B4B05D9196801311960CD
:1029500011683C3911601A68172A06D906490A68B5
:1029600001320A601A68183A1A6008BD8C2A0020E1
:10297000902A0020942A0020982A00202DE9F04374
:10298000ADF6842D00F0C4FB00F0EEFC0022C2493D
:10299000C24801F083FE0122BF49C14801F07EFE1A
:1029A0000122C049C04801F079FE0222BA49BF485D
:1029B00001F074FE0322B849BD4801F06FFE052204
:1029C000B549BC4801F06AFE0422B349BA4801F097
:1029D00065FE0B22B049B94801F060FE04232022B5
:1029E000B749B84801F0D3FB04238022B449B64864
:1029F00001F0CDFB04234FF40042B449B44801F088
:102A0000C6FB04231022A749B24801F0C0FB0423EF
:102A10000822A449B04801F0BAFB072380229E494E
:102A2000AE4801F0B4FB07230422AD49AD4801F0E4
:102A3000AEFB07234FF40042A149AB4801F0A7FBCE
:102A400007234FF480429E49A84801F0A0FB0723CA
:102A50004FF400529A49A64801F099FB07234FF41E
:102A600000729749A34801F092FB07234FF480724C
:102A70009349A14801F08BFB07234FF480629049F2
:102A80009E4801F084FB07234FF400628C499C4868
:102A900001F07DFB072340227F499A4801F077FB34
:102AA00007234FF480728949974801F070FB072390
:102AB0004FF400727849954801F069FB07234FF401
:102AC00080727549924801F062FB07234FF48052EF
:102AD0007B49904801F05BFB0523082280498E4822
:102AE00001F055FB052310227D498C4801F04FFB76
:102AF000052320227A498A4801F049FB0723402216
:102B00007749884801F043FB072308226C4986482F
:102B100001F03DFB072304226949844801F037FB9B
:102B200007234FF480525F49814801F030FB0723AF
:102B30004FF480426A497F4801F029FB07230122B4
:102B400058497D4801F023FB072380225F497B48D9
:102B500001F01DFB072340225C49794801F017FB77
:102B6000042340225649774801F011FB0423102228
:102B70005349754801F00BFB0023802258497348E4
:102B800001F005FB01F0DEFC71494FF000700CF024
:102B900073FB00F079FB00F0A7FB05F06FF800F085
:102BA00019FB00F043FB00F069FCEF20FFF758FD34
:102BB0005548FEF79DFE5F48FEF79AFE142000F090
:102BC0006FFE012780F00100C0B2C3AD0023614A4F
:102BD00061490190009738A800F01CFF0DF5AD6920
:102BE0000023022228465D4905F0A0FA02225C4932
:102BF0003B46484605F09AFA5A4B0F2004935A4B2D
:102C00000DF2C4740593594B18AE069300F032FED2
:102C10003A46002814BF49462946204604F0AAFF38
:102C200022462946304608F0E9FEDFF844810321B8
:102C3000304608F013FF284604A9C8E9005904F0FB
:102C40007DFA04A9484604F079FA4A4B0A201C6030
:102C5000494B1C60494B1C60494B07AC1E6000F09F
:102C600009FE58F820500E2000F004FE58F82010FD
:102C7000444808F0D1FD04F073F804F05FF84FF415
:102C800096424149204609F007FF404B1C600EACBC
:102C9000FEF75CFC7CE000BF00100140E82C002047
:102CA000E42C0020000C0140E02C0020DC2C002053
:102CB000D82C0020D42C0020D02C0020CC2C00209C
:102CC00000140140C42C0020BC2C0020000801404E
:102CD000B42C0020AC2C0020A42C00209C2C002024
:102CE00000180140942C00208C2C0020842C002003
:102CF0007C2C0020742C00206C2C0020642C0020E4
:102D00005C2C0020542C00204C2C0020442C002053
:102D10003C2C0020342C00202C2C0020242C0020C3
:102D20001C2C0020142C00200C2C0020042C002033
:102D3000FC2B0020F42B0020EC2B0020E42B0020A7
:102D4000DC2B0020D42B0020CC2B0020C42B002017
:102D5000C0004000042C010800480040006400400E
:102D60000068004084110108C9170008791600089E
:102D7000BC2A00203C31002094320020B82A0020D8
:102D8000B42A0020DC26002000380140B0260020B4
:102D9000FEF778FBFEF778FAFEF7BCFAFEF7ECFADE
:102DA000FEF71EFCFEF71AFBFEF73EFB1C49204611
:102DB00000F0A0FC1B4B3A4620461B491C6000F06B
:102DC000BBFC0A222046194900F0B6FC64222046CA
:102DD000174900F0B1FCC8222046164900F0ACFCAF
:102DE000782000F047FDB84202D1284602F020F8D2
:102DF0000421832000F05EFD0021842000F05AFDB4
:102E00004FF0000438A88DF80F4000F0BBFF736945
:102E1000002BF7D10DF10F0119A806F071FAF1E7B7
:102E200000080040CC2A00202D120008F9180008E4
:102E30005D220008511F000810B500245C4B5D4A5C
:102E40001C741A605C4B5D4A1C721A60DC721C7345
:102E50005B4A5C4B5C481A605C4B5D4A1A6007F049
:102E6000CFFD5C4B5C4A1C621A601C775B4A5C4B72
:102E70005C481A605C4B5D4A1A605D4B5D4A1A60A3
:102E80005D4B5E4A1A605E4B5E4A1A605E4B5F4A5B
:102E90001A605F4B5F4A1A605F4B604A1A60604B72
:102EA000604A5C751A60DC825F4A604B1A60604B56
:102EB000604A1A60604B614A1A60614B614A1A604D
:102EC000614B624A1A60624B624A1A6004F01AF956
:102ED000614B624A62481A6007F0C0FB614B624A6C
:102EE00062491A60624B634A63481A60634B644AE2
:102EF0001A60644B644A1A60644B654A1A60654BF9
:102F0000654A1A60654B664A1C721A60654B664AD0
:102F10001A60664B664A1C721A60664B664A1A60F3
:102F2000664B674A1A60674B674A1A60674A684B84
:102F3000C2E9024413600023D162136153619361BB
:102F4000D361136253629362624A1060624A6348BB
:102F5000C2E90444C2E90644106013626048536247
:102F60009362D3625F4AC2E90244C2E9044410603A
:102F70001483D361136253629362D3621363536306
:102F80009163594B594A5A481A605A4B5A4A1C7312
:102F90001A605A4B5A4A1C731A605A4B5A4A1A60A2
:102FA00009F0EEFCBDE8104058480BF0B9BB00BF7B
:102FB000782A0020CC3401085C2A0020982C0108D3
:102FC000D82E01084C2A0020282A0020402A002060
:102FD000202F0108042A0020D02D010830310108DB
:102FE000EC2900204C290020E4290020903201081F
:102FF000DC290020C0320108D429002064360108F1
:10300000CC290020EC120108C4290020BC120108C0
:10301000BC290020F0320108B4290020E431010865
:103020009C2900205834010894310108942900207B
:103030008C290020683101088429002038360108D5
:103040007C290020E837010874290020682F010836
:103050006C290020D81101084429002074120108AD
:10306000382900202C290020403901080000FA43AB
:103070002429002098120108C038010818280020CF
:10308000143501080C2800209C3801080028002075
:1030900040370108F427002064370108E4270020A6
:1030A0001C370108D827002088390108C8270020CC
:1030B00064390108C027002010120108B42700203D
:1030C000DC380108AC270020581201087C270020BA
:1030D0003C340108742700204427002020340108D4
:1030E000243901080827002000270020B811010812
:1030F000B4260020F0260020AC340108E026002091
:10310000B4390108D4260020941101089C2600201F
:1031100008B52E480CF01AFA02200CF0C3F94FF053
:10312000E0232B4A40F20230C3F80C2D0CF06CFA6D
:1031300040F203300CF068FA4FF441700CF064FA7E
:1031400040F205300CF060FA40F206300CF05CFA08
:1031500040F292300CF058FA40F291300CF054FAF0
:1031600040F20E300CF050FA40F20B300CF04CFAFA
:103170004FF460700CF048FA40F281300CF044FAE1
:1031800040F282300CF040FA4FF420700CF03CFA20
:1031900040F209300CF038FA40F286200CF034FA94
:1031A0004FF440700CF030FA40F299300CF02CFAE9
:1031B00040F29A300CF028FA40F28E300CF024FAEB
:1031C000BDE8084040F28F300CF01EBA3C3A0108CE
:1031D0000003FA0513B50024202123462246CDE939
:1031E000004410480CF044FB21460E480CF038FB1C
:1031F0000C480CF027FB0B480CF02DFB4FF4204340
:103200000222032108480CF001F84FF48043012208
:10321000214605480BF0FAFF024802B0BDE8104015
:103220000CF004BB00380040000C014013B5002432
:103230004FF080514FF000700CF01EF823462246EC
:103240002021CDE900440E480CF012FB0C480CF094
:10325000F9FA0B480CF0FFFA4FF4A05302220321B5
:1032600008480BF0D3FF4FF40063012221460548C4
:103270000BF0CCFF024802B0BDE810400CF0D6BA0B
:10328000003C00400010014008B502220423032145
:1032900012480BF0BBFF0823012200210F480BF05E
:1032A000B5FF0F490F480CF0A1FC08210D480CF0A8
:1032B000AFFC00210B480CF0B4FC0C2109480CF0C9
:1032C000BCFC002107480CF0B2FC064800210CF0C1
:1032D000BAFCBDE8084003480CF0BBBC0008014044
:1032E00020A107000044004008B511200CF04CFD5F
:1032F000F02111200CF054FD10200CF045FDF021C0
:1033000010200CF04DFD1E200CF03EFD00211E2073
:103310000CF046FD14200CF037FDE02114200CF0D9
:103320003FFD13200CF030FDE02113200CF038FDA0
:1033300028200CF029FD4FF400400BF057FE01212E
:103340004FF400400BF02EFE06494FF400400BF006
:1033500061FE03200CF018FDBDE808402021032089
:103360000CF01EBD0018014008B54FF223410320A8
:103370000CF042FA00200CF0D3F900200CF002FA15
:10338000BDE8084000200CF0DBB90000022208B5BF
:1033900011464FF4007316480BF038FF15480CF037
:1033A000AFFA00232022194612480CF082FA20219D
:1033B00010480CF0AAFA072200210E480CF0A9FAD6
:1033C00000210C480CF0AAFB0A480CF001FC4FF459
:1033D000C872002107480CF0EBFB06484FF48861E7
:1033E0000CF095FABDE8084002480CF084BA00BF22
:1033F00000180140002C014008B5022303211A46A1
:103400001D480BF003FF4FF080400CF079FA0023C9
:103410004FF080401A4619460CF04BFA00214FF04D
:1034200080400CF072FA4FF080400CF04BFA4FF0F5
:1034300080400CF05BFA8F214FF080400CF067FA6F
:1034400002214FF080400CF08EFB062202214FF04B
:1034500080400CF05EFA02214FF080400CF05EFBE1
:103460004FF08040482202210CF0A2FBBDE808404A
:103470004FF080400CF03FBA00080140692010B5C1
:1034800000F0F8F90F2807D10222012311469348D2
:103490000BF0BCFE00240CE0692000F0EBF91028D2
:1034A00040F08E800222012311468C480BF0AEFEC4
:1034B0000124682000F0DEF90F2840F09A800222F3
:1034C0008023114686480BF0A1FE672000F0D2F958
:1034D0000F2840F0B18002224023114680480BF0B3
:1034E00095FE80480CF00CFA00217E480CF0EFF9B4
:1034F0007C480CF0E7F9062200217A480CF009FA22
:103500000622022177480CF004FA062204217548AD
:103510000CF0FFF9002173480CF0C1FA0221714848
:103520000CF0BDFA04216F480CF0B9FA00216D4887
:103530000CF0CFFA02216B480CF0CBFA0421694859
:103540000CF0C7FA002167480CF0E8FA0221654840
:103550000CF0E4FA042163480CF0E0FA002C40F08F
:103560008E807A2000F086F901465E480CF0CFF993
:103570007B2000F07FF9214602465A480CF018FBE8
:103580007C2000F077F90221024656480CF010FB2F
:103590007D2000F06FF90421024652480CF008FB30
:1035A000012150480CF019FB792000F063F9014625
:1035B0004C480CF0AAF9BDE810404A480CF09BB901
:1035C000692000F057F911283FF46CAF692000F032
:1035D00051F912283FF466AF692000F04BF9132827
:1035E0003FF460AF072301223C493F4800F0CFFD84
:1035F00050E7682000F03EF9102815D0682000F050
:1036000039F9112810D0682000F034F912280BD0B5
:10361000682000F02FF9132806D0072380223049B4
:10362000324800F0B4FD50E70222802311462C48B6
:103630000BF0ECFD012448E7672000F01BF910288F
:1036400015D0672000F016F9112810D0672000F07F
:1036500011F912280BD0672000F00CF9132806D0BE
:10366000072340221E49224800F091FD39E702223B
:10367000402311461A480BF0C9FD012431E740F6FA
:103680009F717A2000F016F940F69F7115480CF0F2
:103690003EF901217B2000F00DF9012200211148A3
:1036A0000CF086FA01217C2000F004F901220221AD
:1036B0000C480CF07DFA01217D2000F0FBF801227E
:1036C000042108480CF074FA012106480CF085FA30
:1036D0001121792000F0EEF8112169E7000C01407A
:1036E0000008014000040040EC2B0020E42B0020E7
:1036F000DC2B002038B50C460546016208460CF06C
:10370000E1F820460CF0EDF8094B20461968094B0A
:103710004900B1FBF3F101390CF0F7F820464FF600
:10372000FF710CF0F4F8002328466B6238BD00BF2F
:103730004C250020A0860100F8B5436A0446032BFF
:103740000F462ADC006A02EB8205144E0CF0D8F812
:10375000636A0122F15C206A0CF0DBF8636A0022E4
:10376000F15C206A0CF024FA0221636A05EB8505FE
:1037700003F10802AD0044F82370994024F8125078
:10378000206A0CF089F80021206A0CF02CFA206ADB
:103790000CF0B1F8636A01336362F8BD10130108DD
:1037A0002DE9F843044600254FF0020800F1100609
:1037B000636A08FA05F7AB420ADC3946206A0CF066
:1037C00075F80135042D06F10206F1D1BDE8F88344
:1037D0003946206A0CF064F8A8B1206A0CF001FAAE
:1037E000236A3188343353F8252081460A4443F84C
:1037F000252054F825309847206A0CF0F2F9A0EB08
:1038000009003081D9E7636AAB42DADCD5E70021F1
:1038100070B500F10E03446A4FF47A7508468C4285
:1038200000DC70BD5A8933F8026F6A43B2FBF6F2CE
:1038300001311044F3E7000010B51C24084B04FBD1
:103840000033DC688C4209DC1B698B4206DB054BCC
:1038500043F82010FEF704FF002010BDFF20FCE716
:10386000E003002024000020014B53F820007047A3
:1038700024000020024B53F820004011704700BF85
:103880002400002008B5054B53F820000DF036F950
:103890004FF074510DF086F908BD00BF24000020E0
:1038A000034B53F820004011431E584258417047C3
:1038B00024000020024B490143F82010704700BF4C
:1038C00024000020014B43F8201070472400002002
:1038D00010B5044608464FF084410DF063F90DF031
:1038E0003DFB024B43F8240010BD00BF2400002024
:1038F00070B506460024074D3146686800F0A0FB0D
:1039000008B9E0B270BD0134EF2C05F11C05F3D10C
:10391000F020F7E7E00300200023064A118B8142E4
:1039200001D1D8B270470133EF2B02F11C02F5D15F
:10393000F0207047E00300201C22024B02FB003005
:10394000704700BFE00300200023064A0649108BA1
:1039500010B1506941F823000133EF2B02F11C0232
:10396000F5D17047E003002024000020014B1954DA
:10397000704700BFD02A0020024B1A5C1143195433
:10398000704700BFD02A0020024A135C23EA0103DB
:1039900013547047D02A0020014B185C704700BFB9
:1039A000D02A00201C22024B02FB0033987E704775
:1039B000E003002000487047518E0300024B1A6854
:1039C000024BC3F8B02E704734240020E0030020DF
:1039D000202180680CF063B980680CF058B910B5EC
:1039E00004464368597A58680BF0B4FA636804F1E6
:1039F0002A02597A58680BF0BFFA63688022597A14
:103A000058680BF0C9FA6368BDE81040597A5868E5
:103A10000BF097BA70B5026140F201120D464C49A5
:103A20008282016001210022817580F828100446FD
:103A30000421C0E9062280F8202042629DF810206F
:103A4000856080F829209DF81420037380F82A22CD
:103A5000404A42601068A84203D01C3201396260BB
:103A6000F8D13D490C60002B6FD05069138B0222B6
:103A700003210BF0CBFB28464FF4E1310CF0B6F8F4
:103A8000284608210CF0C4F828464FF400510CF0E9
:103A9000C8F828460C210CF0D0F8284600210CF07C
:103AA000C6F8002128460CF0CEF828460CF0E1F8C4
:103AB00028460CF0E3F86368197A58680BF0CEF9E1
:103AC0006368197A58680BF02AFA63682A1D197A14
:103AD00058680BF048FA63680022197A58680BF0AE
:103AE000F3F963680022197A58680BF0E1F963680A
:103AF000197A58680BF0F4F96368597A58680BF032
:103B0000ADF963682A1D597A58680BF02CFA63687E
:103B10000022597A58680BF0D7F963680022597A65
:103B200058680BF0C5F96368597A58680BF0D8F9F2
:103B300063685868597A0BF004FA2046FFF74FFF84
:103B400028460CF086F8204670BDD068138A8EE7B0
:103B5000902B0108942B0108C02B002038B5437D21
:103B60000D4643B10469216819B1284600F068FA8E
:103B700020B9236803B90024204638BD0834F2E791
:103B800038B504460D4663680222197A58680BF06E
:103B90007AF918B994F82830002BF4D06368197AB0
:103BA00058680BF0D7F96368AAB2197A58680BF015
:103BB000F3F994F82020636804EBC212197A58686C
:103BC000AA320BF0D9F963680222197A58680BF00F
:103BD00055F96368197A58680BF0B3F994F82030F6
:103BE000B3FA83F35B0984F82030002384F828308B
:103BF00038BD10B50446A37D084623B9A068BDE8CA
:103C000010400CF02BB894F82030626A04EBC31318
:103C100013440A2802F1010183F8AA0001D07F2A87
:103C200005D12046FFF7ACFF0023636210BD61623F
:103C3000FCE7802A28BF8022002330B4934203D1BE
:103C400030BC1946FFF79CBF90F82040CD5C00EBDC
:103C5000C4141C4484F8AA500133EFE738B5054674
:103C600008460C4600F003FA214602462846BDE805
:103C70003840FFF7DEBF000010B50446084600F0EC
:103C800049FA00F02EFA217D227B8142636811D12E
:103C9000012161755AB158691B8B032102220BF077
:103CA000B5FA2046BDE810400949FFF7D7BFD868EC
:103CB0001B8AF2E7002161753AB158691B8B01221A
:103CC000BDE8104000210BF0A1BAD8681B8AF6E7C6
:103CD0000325010830B5044685B0084600F01AFAFD
:103CE0000378302B26D0322B144D18BF4FF46125AA
:103CF000637DA3B10A22294601A800F0C8F9204635
:103D00000F49FFF7ABFF20460E49FFF7A7FF2046FC
:103D100001A9FFF7A3FF20460B49FFF79FFF2946A4
:103D2000A0680BF063FF0021A06805B0BDE830403B
:103D30000BF077BF4FF4E135DAE700BF10552200F2
:103D40000225010808250108232B010810B50446A7
:103D5000084600F0DFF9037823B1303B18BF012398
:103D600084F8293094F829302BB104492046BDE865
:103D70001040FFF773BF0249F8E700BF172501089D
:103D8000212501082DE9F04143680446597A586815
:103D90000BF0FBF80546C0F1800710B92046FFF78D
:103DA0001EFE94F82930A06813B1E369BB4258DBCA
:103DB00008210BF074FF10B1A0680BF068FF7F2D95
:103DC00000F3A180631B93F8A9300A2B02D00D2BBE
:103DD00040F086806368597A58680BF0BBF87F2DF5
:103DE0003AD00022E31983F82A202021E26104F16D
:103DF0002A0000F043F990F800800546B8F1000F62
:103E000037D10A2104F12A0000F038F9054684F878
:103E1000AA812B782BB90D2104F12A0000F02EF98C
:103E20000546002339492B7004F12A00A36100F0F4
:103E300007F920BB204604F5D571FFF71DFF0027C9
:103E4000A369002B42D0A0680BF025FFA369204690
:103E50005B6804F5D57198472046BDE8F041FFF74F
:103E6000BEBD5A1CE261234493F82A100BF0F6FE03
:103E700097E7411C04F5D57000F0F0F8C9E7244934
:103E800004F12A0000F0DCF868B994F82A322BB16A
:103E9000204604F5D571FFF71DFFD0E720461D49E8
:103EA000FFF7DCFECBE71C4904F12A0000F0C8F85C
:103EB00028B9204604F5D571FFF748FFBFE7204633
:103EC00004F12A01FFF74AFEA061B9E7012FC3DD23
:103ED000637D002BC0D020461049FFF7BFFEBBE733
:103EE00094F82A30212B0ED1A36963B12046FFF745
:103EF00076FD0023E361A369204604F5D5715B6874
:103F0000BDE8F0411847BDE8F08100BF2C2501084D
:103F10003725010840250108592501085E250108BB
:103F2000044B1B6823B11A68C1B2126818461047C7
:103F3000704700BFC02B002003F036BF07B506490D
:103F4000D1F8F027D1F8EC37D1F8E8170091034900
:103F500000F0EAFA03B000BD00F0FF1F7925010868
:103F600005F0CEB973B5144800F0CCFA134800F050
:103F7000C9FA0024E6B23046FFF7DEFC05463046BB
:103F8000FFF710FD68B93046FFF706FDC3070DD4F3
:103F90006B690B4800936968D5E9032300F0B2FA16
:103FA00004E03046FFF7FEFC0128ECD00134EF2C92
:103FB000E0D102B070BD00BF82250108992501083B
:103FC000B525010870B50B4900F0AEFA0024E0B247
:103FD000FFF7B2FC0546E0B2FFF7DEFCC30704D4EE
:103FE000D5E90112044800F08DFA0134EF2CEED12E
:103FF00070BD00BFC8250108EA250108F8B50646CE
:104000000024E0B2FFF798FC4768E0B2FFF72CFC11
:10401000013403463A463046024900F085FAEF2C57
:10402000EFD1F8BDF425010810B50446FFF78CFC6C
:104030002046BDE81040014900F076BAFD25010890
:10404000431E013913F8010F11F8012F10B10AB105
:104050009042F7D0801A18BF01207047013911F83B
:10406000013F0BB90370704700F8013BF7E70023ED
:10407000C25C0AB9184670470133F9E703461A785B
:1040800018461AB18A4203F10103F8D1704700299A
:1040900070B51EDA2D23012400F8013B4942064683
:1040A00091FBF2F302FB131130313170191E3546CA
:1040B00006F10106F4DC00220346201A3044327077
:1040C000AB420BD21A78297803F8011B05F80129B5
:1040D000F6E704D1302341700370012070BD002445
:1040E000DDE730B503782D2B11D14FF0FF340130CF
:1040F00000210A25431E01E005FB012113F8012FD1
:10410000303AD0B20928F7D904FB01F030BD0124C0
:10411000EEE7000010B5144C02780146A2F10A0344
:10412000DBB2162B1BD824FA03F3DA0700F10100E7
:10413000F2D40846FFF79BFF013808448142044649
:104140000AD203780A3BDBB2162B05D8064A01389F
:1041500022FA03F3DB07F1D40023637001E0002AA5
:10416000E7D1084610BD00BF09004000002310B58C
:10417000934200D110BD51F8234040F82340013351
:10418000F6E702B97047013A40F8041BF9E72DE958
:10419000F041174682800022013B0E460160827189
:1041A000082B0BD8DFE803F0080E0C1815052426A1
:1041B0001A000024002513E0012383710224F9E78B
:1041C0000123837102240025394630460BF05EF846
:1041D00006E001248471EDE70124EBE702240325C6
:1041E0003B46224629463046BDE8F0410BF00EB86A
:1041F0000024F4E701240325E6E770B50C1EACBFEC
:1042000001234FF0FF335C430133064608BF2D23E3
:104210004FF0640208BF06F8013B611104F01F046F
:104220000546544330460A22FFF731FF2E2264111F
:10423000092C3254D8BF302206EB0003D8BF5A7085
:1042400021464FF00A02CCBF581C981CFFF71FFFF5
:10425000284670BDF0B5027803462D2A13D14FF0E1
:10426000FF30013300250A2702E007FB0525013353
:104270001C78A4F13002D6B2092EF6D9A4B98D402B
:1042800025446843F0BD0120ECE78A4002EB66025A
:1042900092FBF6F20CFB06F6144413F8012F303AA9
:1042A000D7B2092FF1D9EAE70A260024B446F4E789
:1042B0002DE9F843141E0646894614DC2027DB0747
:1042C0001FD50025C84626E0013219F80210002942
:1042D000FAD1A242ACBF0C46A41A13F0020F14BFCD
:1042E00030272027EBE70022EFE7336841463046CE
:1042F0001B689847013D002DF7DC24EAE475641B38
:10430000E0E725465FFA87F8F5E7336830461B6833
:1043100008F10108984798F800100029F5D1A5EB9D
:1043200009054544A046FFB2B8F1000F05DC002C9A
:10433000ACBF2819281CBDE8F883336839463046DD
:104340001B68984708F1FF38EEE72DE9F04385B088
:104350008046DDE90C691C460D4651B930233246D2
:10436000ADF8003069464B46FFF7A2FF05B0BDE847
:10437000F08323B10A2A2DD100292BDA4D420023E4
:104380008DF80D300E9B0DF10D0C3A3BB5FBF2F0A4
:1043900002FB1051CF18092988BF3946AA4201F102
:1043A00030010CF1FF370CF8011C15D954B1B6B12E
:1043B00019F0020F13D0D8F800302D2140461B68A9
:1043C0009847013E4B46324639464046FFF770FF5C
:1043D0002044CBE70024D2E70546BC46D6E72D2390
:1043E000002407F8013CACF10207EBE70846FFF7B1
:1043F00097BD00002DE9F04380460E461446002587
:104400004FF00A098DB0317819B928460DB0BDE8D2
:10441000F08325296DD171780029F6D0252906F180
:10442000010065D02D290ABF01270027B01C0378A1
:10443000302B14D0002203780646A3F130015FFA36
:1044400081FCBCF1090F0ED9662B3DD00FD8632B30
:1044500044D0642B1CD0582B2ED00136D3E701302A
:1044600047F00207E3E709FB02120130E3E7752B8F
:1044700024D0782B19D0732BEFD1216820483B46EC
:10448000002908BF014604344046FFF711FF0AE047
:104490006123CDE90173012300920A22216840467D
:1044A0000434FFF752FF0544D7E76123CDE90173D8
:1044B000009200231022F1E74123F7E761230092E5
:1044C000CDE901730023E8E7216808A805920434C8
:1044D000FFF793FE3B46059A08A9D5E7236807A98D
:1044E0008DF81C30002304348DF81D303B46CBE79B
:1044F0000646D8F8003040461B6898470135ACE7BF
:10450000572601080FB407B504AA52F8041B054B3F
:104510006846CDE90032FFF76DFF03B05DF804EBAC
:1045200004B070478C2C01080EB403B503AA52F8EE
:10453000041B0192FFF75EFF02B05DF804EB03B0CD
:104540007047000008B529480AF01CFA27480AF00D
:104550001EFA26480AF025FA24480AF01DFA01211D
:1045600022480AF0FAF921480AF0BEF91F480AF079
:10457000D7F91E480AF0E7F91D4A08211B480AF03E
:1045800015FA1A480AF04AFA4FF4602117480AF05F
:10459000BDF90121174A18480AF0E5FC0121174A24
:1045A00015480AF0E9FC4FF48072012112480AF024
:1045B0008BFC4FF4806201210F480AF079FC6022E5
:1045C00001210D480AF0E8FC01210B480AF088FCA3
:1045D000012109480AF08DFC074801210AF0B1FCCD
:1045E000BDE8084001480AF00FBA00BF00240140AE
:1045F000AC2D00204C24014000000240EC2C002097
:10460000884207DD914203DC01469142A8BF114672
:10461000084670479042F8DD0146F9E737B56D4628
:10462000046804F13003F03433F8102C33F8201C04
:1046300033F8300CFFF7E4FF3033A34225F8020BC8
:10464000F2D1BDF80230BDF800001844BDF80430C6
:104650001844BDF806301844C0F38F0003B030BDD5
:1046600008B50D4B98420BD003F5806398420BD0F0
:10467000A3F5006398420BD1072909DCC8B208BD35
:10468000012905DC0831F9E7052901DC0A31F5E7E4
:104690000AF032F91020F2E7000C0140012370B556
:1046A00093400C4615460022064611469BB2204612
:1046B0000AF0ACFD29462046FFF7D2FF3368034AD3
:1046C0009B1A034AC3F34F03D05470BDEC2C002057
:1046D000AC2D00200D4B0E4A991C13600D4A116041
:1046E0000D4A191D11600D4A991D11600C4A03F104
:1046F000080111600B4A03F10A0111600A4A03F133
:104700000C011160094A0E3313607047EC2C002035
:10471000E82C0020E42C0020E02C0020DC2C0020E1
:10472000D82C0020D42C0020D02C0020CC2C002011
:10473000114A124B30B553F8213052F82140194636
:10474000A342A8BF2146026802F1C8058D4206DBDC
:10475000A342B8BF234603F1C804A24202DD0160B0
:10476000002030BD8A4202DA01600120F9E79A4256
:10477000FBDD0360F9E700BFEC2E0020E42E0020F3
:10478000012970B516D80C4B53F821400B4B53F848
:104790002150AC420ED0001B0CF0B0F90646281B8D
:1047A0000CF0ACF9014630460CF0B0FA04490CF0BC
:1047B000F9F970BD0020FCE7EC2E0020E42E00206B
:1047C0000000C842F8B5224B05461C680146204649
:1047D0000CF0A4FB00B12C461E4B21461E6830464F
:1047E0000CF07EFB00B126461B4D31462F68344647
:1047F00038460CF07FFB002198B130460CF08EFB60
:1048000068B1164B196838460CF0C4F831460446B6
:104810000CF084FB00B1344620462C60F8BD104BF0
:10482000F0E730460CF070FB0028F5D10021384647
:104830000CF074FB48B10020094B19680CF0A8F883
:10484000314604460CF04CFBE4E73846F4E700BF81
:10485000D02E0020C82E0020942E0020BC2E002038
:10486000C02E0020F8B5054689200E461746FFF7F2
:1048700001F83146044628460CF03CFBE0B94FF005
:10488000804130460CF086F829460CF047FBA8B171
:1048900044F01001892089B2FFF70CF8124D3E68F0
:1048A000002130460CF030FBA0B1294630460CF018
:1048B00017FB28B1344604E00C4DF0E70025EEE785
:1048C0002C46284609493C600CF00AFB003818BF0A
:1048D0000120F8BD05F10044214630460CF01EFBD6
:1048E0000028EED0E6E700BF000048420000C842C2
:1048F0002DE9F843044628200E46FEF7C3FF304F4B
:10490000DFF8C08038602920FEF7BCFFC8F800003F
:104910008920FEF7AFFFD7F80090054600214846F2
:104920000CF0FCFA30B3002120680CF0EDFA264FB1
:1049300020B3494630460CF02BF824490CF032F9EC
:10494000002106460CF0CCFAB0B100213960206895
:104950000CF0E4FA28B145F00101892089B2FEF794
:10496000A9FF26683D68304629460CF0B9FA00B127
:1049700035462560BDE8F8833146E7E73046D8F88C
:1049800000100CF005F811490CF00CF90021064656
:104990000CF0C4FA90B10021396020680CF0A0FA44
:1049A00028B145F00201892089B2FEF783FF26680D
:1049B0003D68304629460CF0B1FAD8E73146EBE7BE
:1049C000B82E0020B42E00209C2E00200000604055
:1049D0002DE9F8430D46364E3649044630680CF052
:1049E000E1F829460BF0D6FF4FF076510CF0DAF8DB
:1049F00030602A20FEF746FF2F4FDFF8C080386076
:104A00002B20FEF73FFFC8F800008920FEF732FF99
:104A1000D7F800900546002148460CF07FFA20B3F5
:104A2000002120680CF070FA3668254F08B3314633
:104A300048460BF0ADFF002106460CF051FAB0B12C
:104A40000021396020680CF069FA28B145F00801AE
:104A5000892089B2FEF72EFF26683D683046294638
:104A60000CF03EFA00B135462560BDE8F8833146CA
:104A7000E7E73046D8F800100BF08CFF002106461F
:104A80000CF04CFA90B10021396020680CF028FA43
:104A900028B145F00401892089B2FEF70BFF266892
:104AA0003D68304629460CF039FADBE73146EBE742
:104AB000B82D002000007041AC2E0020B02E002048
:104AC000982E0020104B70B51A68066801EB02148E
:104AD000A41A24110546002130461C600CF01EFA71
:104AE00088B10A4B1868001B48BF0330801020EAC9
:104AF000E0700CF003F80446014630460CF00EFA64
:104B000000B126462E6070BDB42D0020A82E0020D6
:104B1000F8B50E4A064614780D4F0134E4B2312C34
:104B20008ABF002323461C460A4D386855F82410D6
:104B300013700BF02DFF31460BF02CFF0649386047
:104B400045F824600CF0E2F8F8BD00BFBC2D002051
:104B5000882E0020C02D00200000484200000000E8
:104B60002DE9F8430446A0200E469046FEF782FE4B
:104B70000546A820FEF77EFE0746002800F0CA8002
:104B8000002DB8BF6D42B8F1000F2ED0632D40F359
:104B9000C18028460BF0B2FF614B07461D682946CD
:104BA0000CF09EF9002840F0B5805E4B38461E6838
:104BB0005D4B31461C680CF093F998B12946384694
:104BC0000BF0E6FE21460BF0EDFF29460446304689
:104BD0000BF0DEFE014620460CF098F800210BF0A9
:104BE000D9FE04462046BDE8F88331462046FFF74B
:104BF000C7FD4E4B06461C68014620460CF08EF958
:104C0000002875D1214630460BF0C2FE21460646EB
:104C100047480BF0BDFE014645480CF077F8314699
:104C20000BF0C0FF0446434B20461C60FFF770FFAB
:104C30000146064620460BF0ABFE3F4980460CF08D
:104C40004FF930B94FF07E5140460CF067F900B98A
:104C50003446632D4EDD28460BF050FF304B814625
:104C60001E6831460CF03CF9002843D12D4B4846D4
:104C7000D3F80080314B41461D680CF031F998B1F2
:104C8000314648460BF084FE29460BF08BFF314637
:104C9000054640460BF07CFE014628460CF036F8EF
:104CA00000210BF077FE0546254E012F356023D1FC
:104CB000284624490BF076FF05462249224B186806
:104CC0000BF070FF29460BF063FE21460BF06AFFE4
:104CD00017490CF01BF829460BF05CFE0BF052FB59
:104CE0000DA3D3E900230BF0A5FB0BF0FDFD78E746
:104CF000002498E70025D7E72720FEF7BBFD08B979
:104D0000002333600F4930680BF04CFF0D49054616
:104D10000E4BD4E7002465E79A9999999999B93F80
:104D2000DC2E0020E02E0020D42E0020C42E0020F7
:104D30000000C8428C2E0020000080BFD82E00202A
:104D4000902E002000002041D02E0020CC2E0020EC
:104D5000024B00BF013BFCD1704700BF00127A003C
:104D600010B50446002240F2215102F0F6F900226B
:104D700040F22251204602F0F0F9002240F2235185
:104D8000204602F0EAF9002240F22451204602F0C7
:104D9000E4F9002240F22551204602F0DEF900221B
:104DA00040F22651204602F0D8F9002240F2275165
:104DB000204602F0D2F92046BDE8104000224FF410
:104DC000A56102F0CAB900001FB50023064A00938E
:104DD000CDE902230823026840F2114154680DEB2B
:104DE0000302A04704B010BD340001001FB500232A
:104DF00032220093CDE902230823026840F21141D8
:104E000054680DEB0302A04704B010BD1FB500238A
:104E1000064A0093CDE902230823026840F21141BB
:104E200054680DEB0302A04704B010BD340101002B
:104E30002DE9F0430026184B85B005461E7020244E
:104E4000FFF7C2FF4FF04209FFF782FF4FF4C84857
:104E50002B68039600965F68082340F211410DEB22
:104E6000030228468DF808408DF80990ADF80A80B5
:104E70000134B847E4B22846FFF76AFFFFF7B6FFF0
:104E8000FFF766FF292CE3D12846FFF7BFFFFFF7A6
:104E90005FFF05B0BDE8F083041E0020D0F80220BB
:104EA000014B1A60704700BF102F0020D0F802207D
:104EB000014B1A60704700BF002F0020D0F802207D
:104EC000014B1A60704700BFFC2E0020D0F8022072
:104ED000014B1A60704700BFF82E0020054A138866
:104EE000013313800A22D0F8023093FBF2F3024A16
:104EF00013607047142F0020F42E0020D0F80220F9
:104F0000014B1A60704700BF082F0020D0F8022024
:104F1000014B1A60704700BF0C2F0020D0F8022010
:104F2000014B1A60704700BF042F00206FF4A46388
:104F3000C3180846072B15D8DFE803F00406080A53
:104F40000C0E1012FFF7AABFFFF7B0BFFFF7B6BFF6
:104F5000FFF7BCBFFFF7C2BFFFF7D0BFFFF7D6BF59
:104F6000FFF7DCBF70470161704741617047007A0D
:104F70007047007A70470023C372704710B504462B
:104F80000022616008464FF4987102F0E6F80022B2
:104F90004FF43F71606802F0E0F800224FF4906136
:104FA000606802F0DAF860680022BDE810404FF453
:104FB000D07102F0D2B800002DE9F0410025BCB05C
:104FC0008846F02268460F490CF062F86C461426B9
:104FD0002F4620680BF092FD41460BF08BFF08B185
:104FE000D4E90175013E04F10C04F2D13946742074
:104FF000FEF760FC294675203CB0BDE8F041FEF7A5
:1050000059BC00BFD82C010830B49DF80850046882
:1050100002956468A44630BC60470000F0B5037E8A
:10502000044685B0002B54D0A820FEF723FC354B56
:10503000002850D10321344A20731170E1221A70E4
:105040001B78324D8DF808300C238DF809308F23F2
:105050008DF80A302B7800268DF80B30F02360682D
:105060008DF80C300368009602AA4FF4E9715F686E
:105070000523B8472B783B201033DBB2ED2B08BF5C
:105080000D232B70FEF7F6FB214BC0B21A7882423B
:1050900017D04FF40952ADF808204FF0FF328DF8C9
:1050A0000A60039248BB30228DF80B201870002351
:1050B0000093082340F2925160680DEB0302FFF762
:1050C000A3FF236893201D6AFEF7DCFB0146204600
:1050D000A84705B0F0BD421C06D10122022122736F
:1050E000094A1170D222AAE70128A9D10322082176
:1050F0002273054A11707822A1E70828D6D13122FF
:10510000D2E700BF0A1E0020091E00201C2F00202D
:10511000162F00200B7803F0010343720B78C3F3C2
:10512000800303720B78C3F3001383728B78C3F38D
:10513000C00343767047000008B54B7808781B021F
:1051400003F4706318440BF00BF909A3D3E90023AF
:105150000BF070F90BF0C8FB07490BF023FDBDE81D
:1051600008400146A120FEF7B3BB00BFAFF30080AB
:105170009A9999999999B93F2B121F3F0B78842BD3
:1051800003D10121E320FEF795BB812B01D1002142
:10519000F8E770474B78323B18BF0123037670471E
:1051A0000B46B3F53F7F11460FD006DCB3F5987F71
:1051B00007D0B3F5D07F06D07047B3F5906F06D017
:1051C0007047FFF7A7BFFFF7B7BFFFF7D7BFFFF7DE
:1051D000E1BF00002DE9F04F036885B05B6B054629
:1051E0000E469847664C002800F0C480A020FEF7C9
:1051F00041FB40F2ED23984240F3B980A020FEF736
:1052000039FB800080B207229421237843F05003B9
:105210008DF80A200A44AA3202EB10228DF80930D8
:10522000ADF80C001344C0B20344002703EB232362
:105230008DF80830082300970DEB030268688DF89D
:105240000E10AA218DF80F708DF80B70FFF7DCFEA1
:10525000BE420CBF04226422DFF828A14FF00F0BDE
:105260009AF80010DFF8209101F5FC73134403EB6A
:1052700013238DF808304EF22103ADF80A3041F6C1
:105280002173ADF80C300823009768688DF8091079
:105290008DF80F20A8210DEB0302DFF8F0808DF8C8
:1052A0000EB0FFF7B1FE99F80030A9218DF8083053
:1052B00098F8003000978DF809304DF67973ADF805
:1052C0000A30334B6868039308230DEB0302FFF7A2
:1052D0009BFE304E304B3278197800978B188DF842
:1052E0000810FF2103F5E47303EB132368688DF8BE
:1052F00009108DF80D30BA2107238DF80E2002AA6F
:10530000ADF80AB08DF80C70FFF77EFE23782349C4
:10531000013323700B78224A01330B709AF8003066
:10532000307801338AF8003099F8003001300133C9
:1053300089F8003098F800303070013388F8003078
:1053400013780133DBB25C2B13700DD1BE230B70CD
:10535000E92389F800304D231370802327708AF8E1
:10536000007088F80070337005B0BDE8F08F40F62B
:10537000B83048E72378FE22842143F0300347E722
:10538000172F0020192F0020071E0020182F0020A3
:105390001DC7E021051E0020091E0020081E002058
:1053A000061E0020037E10B5044643B1B320FEF76D
:1053B00077FA01462046BDE81040FFF70BBF10BD4D
:1053C0007FB506468420FEF755FA012815BF002355
:1053D0009C231A469E224FF0900014BF1D46602564
:1053E0008DF80C308DF80D20FEF74CFA014623485D
:1053F0000BF0CEFA224904460BF090FD002838D17C
:1054000020460BF0ABFD642358434FF4FA7390FB36
:10541000F3F032300BF072FB1A490BF0BBFA3C236D
:10542000194C8DF808300BF0BFFD23784FF4E8716C
:105430001D43C3238DF80B3048F2CD238DF80A505D
:105440000025ADF80E30082300950DEB03028DF812
:1054500009007068FFF7D8FD0C4A217813788B4259
:1054600009D10133DBB20F2B14BF2370257004B0B8
:1054700070BD0748D3E71170F9E700BF0000C842CC
:1054800000400344000040421B2F00201A2F002040
:1054900000001643F0B5037E044685B0ABB148F278
:1054A0006123C67A02936EB90325606840F23231F7
:1054B000036800965F6802AA0223B847013DF4D151
:1054C0000123E3722046FFF77BFF05B0F0BD406982
:1054D000704708B5B0F908000BF010FB08BD08B51F
:1054E000B0F90C000BF00AFB08BD0023821E30B59A
:1054F0000A44441E14F8015F2B449442DBB2F9D1F4
:10550000084410F8010CC31A5842584130BD00003D
:10551000014B1878704700BFAE2F0020000000003C
:1055200038B51D48FFF77AF805461C48FFF776F8AE
:10553000044628460AF014FF13A3D3E900230AF017
:1055400079FF13A3D3E900230AF0BEFD0BF0CCF9D9
:10555000054620460AF004FF0BA3D3E900230AF016
:1055600069FF0BA3D3E900230AF0AEFD0BF0BCF9F1
:105570000446014628460BF0D1FC08B1284638BD48
:105580002046FCE7AFF300801213371BE91495BFE8
:10559000988F7B2556484C40D42C0020D02C0020DE
:1055A00038B505460C461F48062109F057FC062170
:1055B0001D4A1C4809F0D7FC2A460621194809F063
:1055C000DBFCA2B20621174809F0E6FC06211548CB
:1055D00009F09CFC0621134809F082FC00220621F8
:1055E000104809F071FC002206210E4809F060FC09
:1055F000002206210B4809F04FFC0621094809F05A
:1056000097FC10200AF0C0FB402110200AF0C8FBD4
:105610000448062109F095FCBDE8384003480AF02B
:1056200028BB00BF0000024004440040004400408A
:1056300038B505460C461F48072109F00FFC072125
:105640001D4A1C4809F08FFC2A460721194809F019
:1056500093FCA2B20721174809F09EFC07211548C8
:1056600009F05DFC0721134809F03AFC00220721EC
:10567000104809F029FC002207210E4809F018FC07
:105680004FF4805207210B4809F006FC0721094816
:1056900009F04EFC11200AF077FB402111200AF09E
:1056A0007FFB0448072109F04CFCBDE83840034863
:1056B0000AF0E4BA00000240044400400044004004
:1056C00008B502220621094809F0DDFB68B1022273
:1056D0000621064809F0D2FB0122054B1A70054A43
:1056E000054B116818681960106008BD0000024081
:1056F000D8300020AC230020A823002008B50222C7
:105700000721064809F0BFFB38B1022207210348F0
:1057100009F0B4FB0122024B1A7008BD00000240E0
:10572000D930002038B504463420FEF7A3F800B283
:105730000228E0811FD1344D344B2878002832D123
:1057400041F65832B4F90C10914201DD01221A7071
:1057500019782F4A884248D0012313702D4B93F9B2
:1057600000002D4B10B918780130187018780428F3
:1057700022D108B2E081012808D12848FCF7B8F806
:105780002748FCF7B5F82748FCF7B2F8B4F90E3013
:10579000C3B92248FCF7ACF82148FCF7A5F821482A
:1057A000FCF7A2F80EE00128D2D1B4F90C20B2F532
:1057B000FA6FCDDA0022CAE7052803D1297000214B
:1057C00019701170B4F90E30032B0DD1A820FEF71B
:1057D00051F8013011480DD1FCF78AF81048FCF758
:1057E00083F81048FCF780F838BD002300B2E08150
:1057F0001370C0E7FCF77CF80948FCF779F8094812
:10580000FCF776F8F0E700BFAB2F0020AA2F0020AE
:10581000AD2F0020AC2F0020A92F0020342C002019
:10582000442C00203C2C00202DE9F74F0646122086
:105830008846FEF71FF88E4BC4B21B78012B40F050
:10584000B4803046FFF76EFF40468A490BF0AAF954
:1058500089490BF05BFA0BF081FB884D884F95F975
:1058600000A0388050460BF049F941460BF09AF9F8
:105870000AF088FD7CA3D3E900230AF0DBFD0BF0DE
:1058800033F8804981460BF08DF97B490BF03EFAE5
:105890000BF064FBDFF8F0B1DFF8F0819BF800203B
:1058A0003062A8F80000002A00F0D880BAF1000F9A
:1058B0002EDD2420FDF7E6FF019095F900000BF0A6
:1058C0001DF97349824601980BF06CF90146504668
:1058D0000BF05EF80BF042FB40B200283DDB632882
:1058E000287015DC9BF8003093B92420FDF7CAFF1F
:1058F000824695F900000BF001F951460BF04AF889
:105900000BF02CFB40B26428CABF642328702B70B4
:10591000B6F90E3023BB002148460BF0E1FAF8B18E
:10592000B8F900000AF01CFD00225A4B0AF082FD73
:105930000AF092FFA8F80000B7F900000AF010FD85
:105940000022544B0AF076FD0AF086FF3880032CC3
:1059500014D8DFE804F00B100E1B00222A70C1E7F8
:10596000032C0BD8DFE804F00207050D336A002B87
:1059700004DA434B00E0454B00221A8003B0BDE837
:10598000F08F484644490BF0C9FA10B900233B8018
:10599000F4E748460BF0E2FA41F217133238584365
:1059A000322390FBF3F03880E8E7022B1ED1354913
:1059B00040460BF0F7F830490BF0A8F90BF0CEFA9F
:1059C000324A03B2138013EB83032D4948BF0333DC
:1059D0009B1030620B800CB9A042C9E7012C02D1A8
:1059E00000231380CAE7022CC8D1C2E7032BC5D11C
:1059F000244940460BF0D6F81F490BF087F90BF00D
:105A0000ADFA224A03B2138013EB83031C4D48BF47
:105A100003339B1030622B80032CAFD801A353F8C3
:105A200024F000BF355A0008775900087359000860
:105A3000395A000800289BE7404617490BF06EFAD8
:105A400008B928809AE740460BF088FA41F217130C
:105A500032385843322390FBF3F0F2E7BAF1630F88
:105A60003FF756AF41E700BF7B14AE47E17A843F72
:105A7000B92F002000B888450000C842AC2F002094
:105A8000B22F002000C05A45AD2F0020B02F0020BB
:105A90000000A0400000E03F0000484210B5842014
:105AA000FDF7E8FE08B903F0FDFA8420FDF7E2FEF9
:105AB000012841D12148FBF701FF0146BA20FDF73B
:105AC000F9FE1F48FBF7FAFE0146BB20FDF7F2FE88
:105AD0001C48FBF7F3FE0146BC20FDF7EBFE19481E
:105AE000FBF7ECFE04461648FBF7E8FE84F00103E2
:105AF00080F001046400114844EA8304FBF7DEFEF1
:105B000080F0010044EA00035BB20F4C062B2370C7
:105B100003D10021BF20FDF7CDFE2378052B03D153
:105B20000121BF20FDF7C6FE3520FDF7A3FEBDE82D
:105B3000104080B203F0B6BA10BD00BF2C2C00207C
:105B4000242C00201C2C0020B42F0020034B1B7899
:105B5000012B01D1FFF7A2BF704700BFB92F002072
:105B600000220B4870B5134605468C1E944209DC92
:105B7000294411F8012C285D40EA0220C31A58423A
:105B8000584170BD10F8016B013233449BB2EDE710
:105B90001D2F0020002070B5084C034622468D1EA4
:105BA000854205DC53550A441B0A02F8013C70BDCE
:105BB00014F8016B01303344F2E700BF3D230020AD
:105BC0002DE9F843DFF87482DFF8749298F800103A
:105BD00005469C4FEA20FDF76DFE9B4EEB2099F8A1
:105BE0000010FDF767FE994CEC203988FDF762FE46
:105BF000ED203188FDF75EFEEE202178FDF75AFE9C
:105C000023780E2B54D8DFE813F00F001C004C0053
:105C10005A009700DE00E4000D013F019301EC0102
:105C2000FC0120022B0279020023642188F8003055
:105C30003B80874B1868FFF7B3FC8648FBF758FE9C
:105C400077E08448FBF750FE4FF080431A69D7078E
:105C5000FCD51A69804D22F001021A612B787BB9BC
:105C600099F8003023B97D4BD3F88030DE0760D43B
:105C70000023502189F800307948FFF7D9FC58E01B
:105C800000235021774889F80030FFF7D1FC764B8C
:105C90001B685B7813B901232B704AE02B78013B1A
:105CA000FAE7724A13780133DBB2022B02D8137081
:105CB000BDE8F8830023137003232370F8E798F8F6
:105CC000003003F0FF01002B00F027810023642146
:105CD000284688F80030FFF743FF634B1F6838B948
:105CE00064213846FFF701FC0146002800F00681D8
:105CF0000023012233805E4B1A70B7F854301341F1
:105D00002B8197F92A000AF0F9FE686197F956008D
:105D10000AF0F4FEA861FB88564A6B81B7F81F3081
:105D2000AB817B1E633713F8011FBB4202F8011BD6
:105D3000F9D123780133C0E74F4B494E1A78B3F9B4
:105D40000010930086F84B3052428B11494286F87E
:105D50004C30D3B20A12B2713273484A0027B2F9FA
:105D6000002001F47F41100AB27686F820207822C4
:105D700086F83F20EC2286F840206C2286F84120ED
:105D80006B221943F07686F82100E7207371F372D5
:105D900086F842203770FDF78DFDE920B6F84B10EC
:105DA000FDF788FDE820718BFDF784FD5021284622
:105DB000FFF7F0FE324A1388642B8CBF3B46013359
:105DC0001380002379E70023782188F800303B8096
:105DD0002FE72048FBF788FD4FF080431A69D5076D
:105DE000FCD51A691C4D22F001021A612B78052B93
:105DF0000CD999F8003023B9184BD3F88030D80764
:105E000097D40023642189F8003035E7002264210B
:105E10001C4889F8002001FB0300FFF709FC2B78E0
:105E2000013339E7114A13780133DBB2022B7FF6D5
:105E30003EAF0023137008233FE700BFD830002097
:105E4000D9300020D6300020D4300020B82F0020D8
:105E5000AC230020142C0020A623002000000240C8
:105E60003D230020692E0108A8230020BA2F00201E
:105E7000AE2F00201D2F0020B22F0020B02F0020B9
:105E8000B62F00208120002098F8003003F0FF0199
:105E9000002B42D000237821284688F80030FFF7F5
:105EA0005FFEAD4B1F6828B978213846FFF71DFB10
:105EB000014618B3002301223380A84B1A70B7F8AB
:105EC0006430053B03EBD37313412B8197F9140026
:105ED0000AF014FE6861B7F856000AF00FFEA861D8
:105EE000FB889F4A6B81FB8CAB817B1E773713F855
:105EF000011F9F4202F8011BF9D11AE733880133D1
:105F00009BB20A2B33807FF614AF944BAF2069818C
:105F1000A9811970FDF7CEFC0BE73B8801339BB2DA
:105F2000142B3B807FF6C4AE338801333380ECE71B
:105F30008C4EA220B6F90010FDF7BCFC8A4B286AF3
:105F4000B3F90020894B11125A71DA72B6F90020A8
:105F50009971197300284FEA12219A77D97736DDA3
:105F60009A7602EBD27252101A77120AD9765A77C1
:105F7000752183F84A10122183F84B1060214022CA
:105F800083F84C10252183F84820042283F84D1013
:105F9000522183F8492083F84F20892283F84E103C
:105FA000734983F8562083F858200A78284601322E
:105FB0000A70D10748BF93F85E204FF0640144BFD8
:105FC000013283F85E20FFF7E5FD052375E6CFD0AB
:105FD0001A7702EBD27252109A76120A5977DA7651
:105FE000C6E78420FDF746FC01281CBF0022614B58
:105FF0004FF08C0118BF1A70002388F800303B80E6
:1060000017E65D48FBF770FC4FF080431A69D20732
:10601000FCD51A69574D22F001021A612B78062B24
:106020000DD999F800302BB9544BD3F88030DB07E9
:106030003FF57FAE0023692189F800301CE600227D
:1060400069214F4889F80020E5E64E4A137801336C
:10605000DBB2022B7FF62BAE002313700D232CE650
:1060600098F8003003F0FF02002B3AD000238C2177
:10607000284688F80030FFF773FD374B1F6820B9BA
:106080008C213846FFF731FA08B300230122338010
:10609000324B1A70B7F8753013412B8197F9140001
:1060A0000AF02CFD6861B7F819000AF027FDA86115
:1060B0007B892B4A6B81B7F82B30AB817B1E8B37EA
:1060C00013F8011FBB4202F8011BF9D107E0338826
:1060D00001339BB20A2B338001D9204B18700E2359
:1060E000EBE53B8801339BB2142B3B807FF6E0ADA0
:1060F000338801333380194B1A70F0E7194EA22010
:10610000B6F90010FDF7D6FB174B2846B3F900206F
:10611000164B524211125A71DA72B6F90020997177
:10612000DA77121283F820209A7E197383F82520DB
:10613000DA7E692183F82620782283F84F20EC222A
:1061400083F85020102283F85120272283F8522010
:10615000FFF720FD0A23B0E5A8230020AE2F002082
:106160001D2F0020B02F0020B22F00203D23002043
:10617000B52F0020A6230020142C00200000024090
:106180000B1E0020BA2F002038B5037F04468B4237
:106190000D460AD051B16120FDF76CFB08B9FDF73F
:1061A000F5F8FDF729F90123237738BD4FF080403A
:1061B00009F0A6FB2577F8E708B50121FFF7E4FF12
:1061C000064B1A78042A04D805221A700022044BC0
:1061D0001A700222034B1A7008BD00BFB82F0020AE
:1061E000A6230020B92F002008B50121FFF7CCFF1E
:1061F000064B1A78042A04D900221A700122044B93
:106200001A700122034B1A7008BD00BFB82F00207E
:10621000A6230020B92F0020012108B5FFF7B4FF05
:106220000A4B0B491A78092A9CBF0A221A700022CD
:10623000084B1A706923084A11F8010B013B02F858
:10624000010BF9D10322054B1A7008BDB82F0020AD
:10625000002E0108A62300203D230020B92F002096
:106260000021FFF791BF01817047000008B5084683
:106270000AF074FEA622A0F10F035343412293FBC0
:10628000F2F3024A5833138008BD00BFDA30002011
:10629000B220FDF705BB000038B5C37A04464BB900
:1062A000064DA988286808F0F6FFAB79002818BFCA
:1062B00083F0010323730023E37238BDD42B002045
:1062C00010B5044600226160084640F2531100F008
:1062D00044FF60680022BDE8104040F2F31100F076
:1062E0003CBF40F25313994210B5044610D1B2F8A6
:1062F0000100A0F5B0700AF001FC4FF076510AF0F1
:1063000051FC0146A120FDF7E3FA0123E37203E00B
:1063100040F2F3139942F8D010BD000010B5064CBE
:10632000A188206808F0B7FFA37900280CBF1846A1
:1063300083F0010010BD00BFD42B00201FB540F238
:10634000EE22038940F21631934238BF13460522EC
:10635000ADF8082041F65832934228BF13460A226E
:106360009B01B3FBF2F3ADF80A30002300930393D3
:10637000082340680DEB0302FEF746FE05B000BDA2
:106380001FB5164A0024137815498DF80830154BAF
:1063900003941B888DF80930C523ADF80A300B78BB
:1063A0000133DBB2152B0FD80B707BB9112313709F
:1063B00000230093082340F2293140680DEB0302CB
:1063C000FEF722FE04B010BD0C70EFE7082B01D1E0
:1063D0008623ECE70F2BEBD1D923E8E7DE30002052
:1063E000DF300020DA3000201FB54623ADF80C3036
:1063F000002340688DF80E30026800935468032330
:1064000040F23B4103AAA04704B010BD1FB50D4A9E
:1064100040F245511388013313808DF809301B0A6F
:106420008DF80A30084B00220393082300928DF860
:1064300008208DF80B2040680DEB0302FEF7E4FD09
:1064400005B000BDDC3000207E1000181FB5E1B1A2
:1064500001291CD001310CBF072308238DF8093016
:106460004FF6FF73ADF80A300A4B812203930023E5
:10647000009308238DF8082040F23F4140680DEB5F
:106480000302FEF7C1FD05B000BD0623E6E70523C4
:10649000E4E700BF0080FFFF037B10B50446BBB1FB
:1064A000FFF74CFF2046FFF76BFF2046FFF7AEFFDC
:1064B0002046FFF799FF0320FDF7F2F940B1A8202D
:1064C000FDF7D8F941B22046BDE81040FFF7BEBF46
:1064D00010BD018170477047B220FDF7E1B900009F
:1064E00010B5064CA188206808F0D5FEA3790028D5
:1064F0000CBF184683F0010010BD00BFD42B002054
:1065000030B5204A204B8BB0CDE9032300221F4930
:106510001F4B204CCDE905131F4B204D07932378CB
:10652000ADF8212063F07F038DF820302B682833ED
:106530006B4413F81C1C8DF8231013F8181C8DF8ED
:10654000241013F8141C8DF8251013F8101C13F8E0
:106550000C3C00928DF826108DF827304FF4B06176
:106560000823406808AAFEF74FFD2B68013303F0AB
:1065700003032B602378013303F00F0323700BB068
:1065800030BD00BF0F287F281E1000107056F05637
:106590000C48A748E030002046902890E4300020C6
:1065A00040F2EE22038930B5934238BF134641F6DC
:1065B0005832934228BF1346002485B09A000381C5
:1065C0009B09CDE902448DF80B3008230094054661
:1065D0008DF80C204FF420710DEB03024068FEF79C
:1065E00013FD082300944FF4227168680DEB030239
:1065F0008DF80B408DF80C40FEF706FD05B030BD60
:1066000008B5034BB3F900000AF078FA08BD00BFE3
:10661000FC30002008B5034BB3F900000AF06EFA15
:1066200008BD00BFFE30002008B5024B18880AF0F4
:1066300061FA08BD0231002008B5034BB3F9000030
:106640000AF05CFA08BD00BF00310020064B1A7842
:10665000064B0AB91A7001E0012AFBD0044A1268FD
:1066600002B91A7018787047F8300020F93000200D
:10667000F430002010B504460022616008464FF453
:10668000C87100F06AFD60680022BDE8104040F269
:10669000815100F062BD0000F0B5064685B00846A5
:1066A0002F490AF07FFA0AF059FC2E4B01B2A220C2
:1066B0001980FDF7FFF88420FDF7DCF80446A820D8
:1066C000FDF7D8F8012C43D101283FD0431C5C4290
:1066D0005C412401B320FDF7E3F8234A04EB800476
:1066E000138813B1013B13800234A320FDF7C2F8D5
:1066F000C0F30B05A420FDF7BDF80746DA20FDF72F
:10670000B9F81A4A00F0030302EA073245EA0465C1
:1067100015439B0343F4C80345EA80750393029530
:1067200008F07AFB022102A808F084FB0022039BF8
:106730003F2143EA006370680393036800925C683A
:1067400008230DEB0302A04705B0F0BD0824C1E704
:10675000002CF9D14FF49672034B1A80F4E700BF76
:1067600000002041FA300020F030002000F0FF004F
:106770000E4A13788BB103780D49802B0ED101207E
:106780000C4B18700B780344DBB20B700021042B08
:10679000117082BF0522084B1A707047602B01D020
:1067A0000023F2E70120054B1870F9E7EF300020D5
:1067B000EA300020EE300020EC300020ED300020E8
:1067C000B1F5C87F16D111780E4B19700A21B2F8B5
:1067D0000130B3FBF1F30C490B80B2F803100B4B03
:1067E000198053790A491E3B0B809379094A1E3B55
:1067F0001380704740F28153994202D11046FFF74F
:10680000B7BF7047F830002002310020003100206F
:10681000FE300020FC3000202DE9FF418D4C064663
:106820002378052B25D8DFE813F0060027004A005F
:10683000E400EF000E01884F884D3B78B3B92B7808
:106840002BB100232B7023780133237011E0844A8D
:106850004068CDE90223026800930823566840F29D
:1068600001610DEB0302B04701233B702B78002B35
:10687000E7D104B0BDE8F081774F784D3B78D3B9CC
:106880002B784BB1002322782B7001322270754A8D
:106890001370754A1370ECE7744A4068CDE902231F
:1068A000026800930823566840F201610DEB030271
:1068B000B04701233B702B78002BDAD0E2E76C4F16
:1068C000684D3B88042B00F28D80297800295BD12C
:1068D000654A1078002834D0012311702B705E4C6B
:1068E0002278002AC5D10B20624B39880293624B73
:1068F00000FB0133197970688DF80C1059798DF807
:106900000D109979DB798DF80E108DF80F30036832
:106910000092D3F80480082340F201610DEB0302DA
:10692000C047012323702B78022BA2D14E4B1A783B
:10693000002A34D000221A703B882A7001333B8031
:1069400097E7454C2178002993D14C4A4A48029256
:106950000B225343C218C35C70688DF80C30537817
:106960008DF80D3093788DF80E30D3788DF80F3088
:1069700003680091D3F80480082340F201610DEB15
:106980000302C047012323702B78012BCBD1364B58
:106990001A78002AA3D002222A7000221A702E4CE4
:1069A0002278002A7FF465AF0B20354B398802939B
:1069B000314B8DF80E2000FB0133197A70688DF889
:1069C0000C10597A9B7A8DF80D108DF80F300368F2
:1069D00000925D68082340F201610DEB0302A847B5
:1069E000012332E700231C4A2B7013703B800323E2
:1069F0002BE70023184A13701A4A13701C4A13809D
:106A0000194A1370042320E7134FDFF85C803B78AA
:106A100098F8005093B9A5B91A4B4068CDE90235F2
:106A2000036800955C68082340F201610DEB0302E6
:106A3000A047012388F800503B701AE7002D3FF46F
:106A400018AF052301E70021132004B0BDE8F04191
:106A5000FCF730BFEC300020EF300020EE3000209B
:106A600023003100EB300020ED3000202380310086
:106A7000E830002023003001982F01082300300067
:106A8000230030022302500010B504468420FCF796
:106A9000F1FE0D4B186058B90C4B18800C4B188048
:106AA0000C4B18800C4B18800C4B18700C4B18803A
:106AB0001320FCF7DFFE012804D12046BDE810407A
:106AC000FFF7AABE10BD00BFF43000200231002045
:106AD00000310020FE300020FC300020F830002083
